:020000040800F2
:10000000E00A0020C10100086B1100081D10000863
:1000100069110008A50E0008012200080000000078
:10002000000000000000000000000000311800087F
:10003000410F000800000000E9110008351B00080E
:10004000DB010008DB010008DB010008DB01000820
:10005000DB010008DB010008DB010008DB01000810
:10006000DB010008DB010008DB010008DB01000800
:10007000DB010008DB010008DB010008DB010008F0
:10008000DB010008DB010008DB010008DB010008E0
:10009000DB010008DB010008DB010008DB010008D0
:1000A000DB010008DB010008DB010008DB010008C0
:1000B000D51B0008E91B00080D1C0008DB01000827
:1000C000DB010008DB010008DB010008DB010008A0
:1000D000DB010008DB0100084D200008DB010008FF
:1000E000DB010008DB010008DB010008DB01000880
:1000F000DB010008DB010008DB010008DB01000870
:10010000DB010008DB010008311C0008DB010008EE
:10011000DB010008DB010008DB010008DB0100084F
:10012000DB010008DB010008DB010008DB0100083F
:10013000DB010008DB010008DB010008DB0100082F
:10014000DB010008DB010008DB010008DB0100081F
:10015000DB010008DB010008DB010008DB0100080F
:10016000DB010008DB010008DB010008DB010008FF
:10017000DB010008DB010008DB010008DB010008EF
:10018000DB010008DB010008DB010008DB010008DF
:10019000DB010008DB010008DB010008DB010008CF
:1001A000DB010008DB010008DB010008DFF80CD0F0
:1001B00000F062FB0048004719330008E00A002005
:1001C0000648804706480047FEE7FEE7FEE7FEE7F1
:1001D000FEE7FEE7FEE7FEE7FEE7FEE7791B000825
:1001E000AD01000840EA01039B0703D009E008C9FC
:1001F000121F08C0042AFAD203E011F8013B00F8EC
:10020000013B521EF9D270472DE9FE4F804681EA2C
:100210000300C00F0C46009021F0004123F0004580
:10022000B8EB0200A94105D24046214690461C4643
:100230000B46024623F00040104347D0270DC7F37A
:100240000A00C3F30A510290401A019040286BDA69
:10025000C3F3130040F4801B0098924620B10023A2
:10026000D2EB030A63EB0B0B01985946C0F1400235
:10027000504600F00BFA06460D4650465946019A84
:1002800000F023FA10EB08006141002487EA1152C4
:1002900084EAE7731A4340D0009A62B3019A012AB4
:1002A0004FEA075215DC001B61EB02014FF00042E0
:1002B00002EA0752CDE90042001C41F580113246A6
:1002C0002B4600F05AFA03B0BDE8F08F40462146B5
:1002D000F9E7001B61EB0201001C41F580130018D7
:1002E0005B412018A2F5001747EB030140EAD570E7
:1002F000B6196D4111E06D084FEA360645EAC07542
:100300004FEA0752001B61EB0201001C41F580110E
:1003100049084FEA30000019514132462B4603B0DC
:10032000BDE8F04F00F01ABA009801224000002307
:10033000D0EB020263EBE073009821464FEAE074D1
:10034000B8EB000061EB0401E9E783F000435BE7F1
:1003500081F0004158E72DE9FE4F81EA030404F0E3
:10036000004421F0004100944FF0000B23F00043C3
:1003700050EA01045ED052EA03045BD0C3F30A548E
:10038000C1F30A552C44A4F2F3340194A0FB0254A7
:10039000C1F3130141F48011C3F3130343F4801339
:1003A00001FB024400FB034E840A970A44EA81548D
:1003B00047EA8357A4FB076802958D0A05FB07856A
:1003C0004FEA932C04FB0C542705029D4FEA065874
:1003D00047EA1637B5EB08056EEB070C870E920E51
:1003E00047EA811742EA8312A7FB0201B6EB0B0131
:1003F00064EB00042B0D43EA0C335E1844EB1C50F5
:10040000DA465146E7FB0201C5F313044FEA0B330A
:1004100043EA14534FEA0432019C43EA0603A4F171
:100420000C040294009CCDE900B400F0A6F903B0DE
:10043000BDE8F08F00200146F9E72DE9F04D81EA93
:10044000030404F0004B21F0004514464FF0000A6D
:1004500023F0004150EA050220D054EA01021DD0E9
:10046000C5F30A570246C5F31303C1F31300C1F3E2
:100470000A5640F4801543F48013A7EB0608101BBE
:10048000D64608F2FD3873EB050002D308F10108E7
:1004900001E092185B41B8F1000F03DA0020014639
:1004A000BDE8F08D00204FF48011064684460EE032
:1004B000171B73EB050705D3121B63EB05030643FC
:1004C0004CEA010C49084FEA300092185B4150EAAF
:1004D0000107EDD152EA030012D082EA040083EA58
:1004E0000501084305D0101BAB4106D201220023B1
:1004F00006E000224FF0004302E06FF001025310CB
:100500001AEB06004CEB085110EB0A0041EB0B0113
:10051000BDE8F04D00F022B90EB5C10F80EAE070E1
:100520000844CA07002140F233438DE80E000A4612
:100530000B4600F022F903B000BD3EB5CA17CB0F41
:10054000002450405140C0186141DA0740F2334363
:100550000094CDE901232246234600F00EF903B0B2
:1005600030BD70B5C1F30A5201F000450024C1F35B
:10057000130140F2FF3341F480119A4201DA002066
:1005800070BD40F233439A42A2F2334203DC52423E
:1005900000F08BF800E090402C43F1D0404270BD59
:1005A00000F0004230F000400AD0C10D01F560714A
:1005B000C0F3160042EA0151C208400711437047D8
:1005C00000200146704701F0004330B421F00041A3
:1005D00050EA010206D00A0DA2F56072C1F31301C0
:1005E000002A02DC30BC00207047440F44EAC104FA
:1005F000C100E01830BC00EBC25000F078B830B554
:100600000B46014600202022012409E021FA02F5D0
:100610009D4205D303FA02F5491B04FA02F528446A
:10062000151EA2F10102F1DC30BD2DE9F05F054697
:10063000002092469B4688460646814640241BE0A1
:10064000284641464746224600F02FF853465A4670
:10065000C01A914110D311461846224600F016F8F0
:100660002D1A67EB01084F4622460120002100F0B9
:100670000DF817EB00094E41201EA4F10104DFDC48
:10068000484631462A464346BDE8F09F202A04DB0F
:10069000203A00FA02F1002070479140C2F1200395
:1006A00020FA03F3194390407047202A04DB203AD4
:1006B00021FA02F00021704721FA02F3D040C2F182
:1006C00020029140084319467047202A06DBCB17C9
:1006D000203A41FA02F043EAE07306E041FA02F3FD
:1006E000D040C2F1200291400843194670470029CA
:1006F000A8BF7047401C490008BF20F001007047A8
:1007000010B4B0FA80FC00FA0CF050EA010404BF07
:1007100010BC704749B1CCF1200421FA04F411FA5D
:100720000CF118BF012121430843A3EB0C01CB1DA1
:100730004FEA00614FEA102042BF002010BC704712
:1007400000EBC35010440029A4BF10BC7047401CEC
:10075000490008BF20F0010010BC704710B5141EFE
:1007600073F1000408DA401C41F1000192185B416A
:100770001A4301D120F0010010BD2DE9F04D924641
:100780009B4611B1B1FA81F202E0B0FA80F2203258
:100790009046FFF77BFF04460F4640EA0A0041EA15
:1007A0000B0153465A46084313D0114653EA010041
:1007B00019D0C8F140025046FFF777FF05460E46B4
:1007C000504659464246FFF761FF084305D00120D5
:1007D00004E020463946BDE8F08D0020054346EA96
:1007E000E0762C4337430A986305E40AA0EB08003F
:1007F0000022FD0A44EA47540A3002D5002001468F
:10080000E9E7010510196941DDE908450019694169
:10081000BDE8F04DA2E7C1F30A52C1F3130140F263
:10082000FF3341F480119A4202DA002001467047FA
:1008300040F233439A42A2F2334202DC5242FFF7C3
:1008400034BFFFF723BF000030B5041E71F1000470
:1008500004DB4FF00044404264EB0101141E73F1CD
:10086000000405DB1C464FF00043524263EB0403D7
:10087000994208BF904230BD064C074D06E0E06843
:1008800040F0010394E8070098471034AC42F6D3D7
:10089000FFF790FC603F0008803F000870B58C189F
:1008A00010F8015B15F0070301D110F8013B2A1184
:1008B00006D110F8012B03E010F8016B01F8016B71
:1008C0005B1EF9D12B0705D40023521E0DD401F86D
:1008D000013BFAE710F8013BCB1A921C03E013F836
:1008E000015B01F8015B521EF9D5A142D8D300206B
:1008F00070BD000070B50024194A1368DB04FCD4F5
:100900000146012000F030F8164E1021304600F06C
:1009100081FBFC2000F048FF002000F045FF012093
:1009200000F042FF082000F00DFBFF2000F03CFF2C
:1009300044EA0044FF2000F037FF44EA0025FF208E
:1009400000F032FF40EA05041021304600F064FB5D
:10095000B4F5000F01D3A4F18074204670BD0000EF
:10096000100402400000024070B504460E460D4DD2
:100970001021284600F04EFB0B480268D204FCD43C
:1009800004F00F0040F0500000F00EFF002000F0D7
:100990000BFF304600F008FF2846BDE870401021EC
:1009A00000F03ABB000002401004024070B5204C39
:1009B0002068C004FCD41F484FF480610180C1143A
:1009C00001801C498014891C08801B4D1021284679
:1009D00000F020FBF02000F0E7FE2168C904FCD401
:1009E0001021284600F018FB06210020FFF7BCFF6D
:1009F00002210846FFF7B8FF82210320FFF7B4FF6A
:100A000000210420FFF7B0FF2168C904FCD41021A5
:100A1000284600F0FFFAF02000F0C6FE2168C90465
:100A2000FCD42846BDE87040102100F0F5BA000063
:100A300010040240181C02400000024070B50A4D2C
:100A4000287AC0070FD0094C2089401C80B2208131
:100A5000022808D90026268100F056FF2681287A30
:100A600000F0F000287270BD540100202800002022
:100A70002DE9F05F2DED088B82460F4690469B4690
:100A80004FF000090024BAF1010F01D14FF0010924
:100A9000012F03D109F1010909F0FF09B8F1010F94
:100AA00003D109F1010909F0FF09D748407980060F
:100AB0009FEDD69A69D5D649D648CA8F0270120AD8
:100AC00042708A8F8270120AC27090ED000A30382C
:100AD000BDEEC00A10EE102A826100F134034E8E82
:100AE0001E70360A5E700E8E9E70360ADE7093EDB2
:100AF000000A20EE090A80ED080ADFEDC70A20EEA1
:100B0000201A80ED071A1B1DCE8E1E70360A5E70ED
:100B10008E8E9E70360ADE70D3ED000AFDEEE00A7E
:100B200010EE906A06611B1DB1F83AC083F800C050
:100B30004FEA1C2C83F801C0098F9970090AD970FB
:100B4000D3ED000AFDEEE00A10EE901A416142601A
:100B5000B31A00EE903AF8EEE01AC1EE210AC0EDA9
:100B6000020A8A1A01EE102AF8EEC11A80EE211A42
:100B700080ED091A891B00EE101A71EE600AB8EEBA
:100B8000C00A80EE801A80ED031A2846FFF708FDA0
:100B900041EC100BA14D53EC102BA1A0296801F0E2
:100BA00031FBBBF1010F03D109F1010909F0FF0984
:100BB0009A4E1036BAF1010F59D10120FFF79AFE73
:100BC000A9F1010945F829003068FFF7A5FC41ECBF
:100BD000180B28680022C11702F0B8FD53EC182B3F
:100BE00051EC100BFFF7B1FBFFF7BBFC2860894904
:100BF00030394A68D1ED031A821A00EE102A0A69C8
:100C0000F8EEC00A821A00EE102AB8EEC01A91ED72
:100C1000020A01EE210A60EE800A80EE890A00EEE7
:100C2000900A01F12800011DF8EEE00AC0ED000A6B
:100C3000C1ED000ACA78804B91F802C00CEB022289
:100C40009A844A78097801EB0221D98410EE101AAF
:100C50007A4A91420BDA80ED000AC178827802EB81
:100C6000012119804178007800EB01205880DFF8DD
:100C7000D0919FED74AB9FED75BB9FED769B012FDF
:100C80003ED12320FFF736FE286001247068FFF76D
:100C900043FC41EC180B68680122C11702F056FDB5
:100CA00053EC182B51EC100BFFF74FFBFFF759FCDF
:100CB0000746686007EB0900FFF72EFC53EC1A2B80
:100CC000FFF749FB53EC1B2BFFF79EFA41EC180B87
:100CD000A7F63270FFF720FC53EC182BFFF73BFB15
:100CE00053EC192BFFF7A9FBFFF76DFCFFF758FC3E
:100CF00041EC100B394653EC102B58A001F082FA4E
:100D0000B8F1010F31D14520FFF7F4FD45F824007B
:100D1000641CE4B2B068FFF7FFFB41EC180B55F818
:100D200024000222C11702F011FD53EC182B51ECE4
:100D3000100BFFF70AFBFFF714FC45F824000746E9
:100D40003846FFF7E9FB9FED4B1B53EC112BFFF7E8
:100D500002FBFFF738FCFFF723FC41EC100B394690
:100D600053EC102B45A001F04DFABBF1010F46D119
:100D70006720FFF7BFFD45F82400641CE7B2F06868
:100D8000FFF7CAFB41EC180B55F827000322C117E7
:100D900002F0DCFC53EC182B51EC100BFFF7D5FAEA
:100DA000FFF7DFFB45F82700044604EB0900FFF7D7
:100DB000B3FB53EC1A2BFFF7CEFA53EC1B2BFFF7C8
:100DC00023FA41EC180BA4F63270FFF7A5FB53ECA5
:100DD000182BFFF7C0FA53EC192BFFF72EFBFFF788
:100DE000F2FBFFF7DDFBBDEC088B41EC100B21465D
:100DF00053EC102B26A0BDE8F05F01F003BABDEC68
:100E0000088BBDE8F09F00005401002000007A44E8
:100E10002A02002080000020CDCCCC3D2004002000
:100E2000202030206368616E6E656C3A2564202551
:100E30002E33660A000000006201002000007A44A0
:100E4000D4A0FEFFDB48AA945142F5BDC630276806
:100E500093C3BD3F0000000000408F4020203120A0
:100E60006368616E6E656C3A256420252E33660AD0
:100E700000000000A05C25E8C710A43E202032201E
:100E80006368616E6E656C3A256420252E336600BA
:100E9000202033206368616E6E656C3A25642025DE
:100EA0002E336600FEE7000070B586B001210846CB
:100EB00000F020FA0121102000F046FA1E4E072211
:100EC0000A21304600F08FF807220921304600F051
:100ED0008AF800248DF8164001208DF817000225AD
:100EE0008DF81450410204918DF8155004A9304634
:100EF00000F03BF88DF814506802049004A93046C5
:100F000000F033F84FF416400090ADF80440ADF80F
:100F10000640ADF80840ADF80C400C20ADF80A00D2
:100F2000064C6946204601F005F90121204601F0F2
:100F3000B3F806B070BD0000000002400010014090
:100F40007047000001B5034800990160016800295D
:100F5000FCD108BD4400002000E0401E0028FCD168
:100F6000704772B6704762B670472DE9F0410022B3
:100F700001274FF0030C07FA02F50B682B40AB4238
:100F80002CD1066853000CFA03F4A64306600E79D0
:100F9000D0F800809E4046EA080606600E79012ED1
:100FA00001D0022E12D18668A64386604E79D0F811
:100FB00008809E4046EA080686604668AE43466062
:100FC00045688E799640B6B235434560C568A543FD
:100FD000C560CC799C40C3681C43C460521C102A75
:100FE000C9D3BDE8F08110B54B07DB0E9A40C908A4
:100FF00000EB8100016A0F249C40A1430162016A59
:101000001143016210BD0246002012690A4200D05D
:10101000012070474183704701837047FEE700005D
:101020002DE9FC410121022000F064F9012108466C
:1010300000F060F94FF48050009000248DF80440D7
:1010400001268DF8076002258DF8055069460F4886
:10105000FFF78BFF0E4F10213846FFF7DDFF102002
:1010600000908DF804608DF805508DF806408DF8DD
:10107000074069463846FFF778FF10213846FFF7EA
:10108000CBFF00F00BFBBDE8FC8100000004024038
:10109000000002401CB50121072000F02BF90120BF
:1010A000009000208DF804008DF8070002248DF8D0
:1010B000054069460948FFF758FF2003009069463C
:1010C0000748FFF752FF200200908DF807408DF887
:1010D000054069460348FFF748FF1CBD0000024079
:1010E000000802400004024070B504460D4629463F
:1010F0002046FFF788FF012801D0002070BD42F292
:101100001070FFF71FFF29462046FFF77CFF0128DC
:1011100001D0002070BD012070BD00001CB5012170
:10112000802000F0E7F84FF48060009001208DF8F7
:10113000040000218DF806108DF807008DF80510C9
:10114000084C69462046FFF710FFE11400916946FC
:101150002046FFF70AFFA114009169462046FFF7D9
:1011600004FF1CBD001C0240FEE7704730B50F2392
:10117000C27801250178002A1FD0154A126802F4AE
:10118000E062C2F5E062C2F30722C2F10404D34078
:101190004278A24084781C401443220101F1E021EE
:1011A00081F80024007800F01F018D404009800084
:1011B00000F1E020C0F8005130BD01F01F00854073
:1011C0004809800000F1E020C0F8805130BD0000E7
:1011D0000CED00E002490843024908607047000036
:1011E0000000FA050CED00E0704700002DE9F04F1B
:1011F000DFF8E880DFF8E8A03A4F98F805003A4AAF
:101200005FEA007C4FF001094FF00803AAF10201E8
:101210004FF004044FF480754FF4007614D55FEA64
:10122000C06C11D4A2F800900B80AAF800403D8059
:10123000DFF8B8C0ACF8006098F803C02CF0090CD7
:101240004CF0220C88F803C0DFF8A4C05FEA007EEF
:101250004FF0000B11D4B2F800E0BEF1010F0CD139
:101260000B800C803D80ACF80060A2F800B098F8CC
:1012700003E02EF0220E88F803E05FEA007E19D426
:101280005FEAC06E16D5A2F80290AAF800300C8072
:10129000DFF8509009F10209A9F80050DFF84C90EE
:1012A000A9F8006098F8039029F0020949F029098B
:1012B00088F80390C0060FD4508801280CD10B8009
:1012C0000C803D80ACF80060A2F802B098F80300F2
:1012D00020F0290088F80300BDE8F08F54010020B9
:1012E0001A1C024018080240480000201A18024048
:1012F00018180240054A002903D011680143116003
:101300007047116881431160704700003038024017
:10131000054A002903D01168014311607047116824
:10132000814311607047000040380240054A00299F
:1013300003D0116801431160704711688143116047
:101340007047000020380240054A002903D0116888
:1013500001431160704711688143116070470000BC
:1013600044380240054A002903D011680143116046
:1013700070471168814311607047000024380240B3
:1013800070B5244B196801F00C01234C00291ED0C4
:10139000224E04291DD008291DD00460196801F0CF
:1013A000F00109091E4A545C0168E14041601C6873
:1013B00004F4E054A40A145D21FA04F484601B6868
:1013C00003F460435B0BD25CD140C16070BD04602C
:1013D000E4E70660E2E70F4A121F1168C1F3805587
:1013E000116801F03F0135B1B6FBF1F11468C4F3A7
:1013F0008814614305E0B4FBF1F11468C4F3881468
:1014000061431268C2F30142521C5200B1FBF2F177
:101410000160C3E7083802400024F40040787D01F1
:10142000140000202DE9FC5F012140F2D710FFF7E6
:1014300061FF7020009001248DF804408DF8064073
:101440008DF807404FF0000B8DF805B0354E69461A
:101450003046FFF78AFD40F605000090324F69469E
:101460003846FFF782FD0225009569462F48FFF7B1
:101470007CFD41F208000090DFF8B49069464846D0
:10148000FFF773FD4AF20C00009069462948FFF708
:101490006CFD4FF4807ACDF800A069462648FFF72E
:1014A00064FD4FF46060009069462448FFF75DFDDD
:1014B0004FF40068CDF800808DF804B08DF8075027
:1014C0008DF8055069464846FFF74FFD41464846AE
:1014D000FFF7A0FD174A082318321380042111805A
:1014E000A7F8188014481830A0F800A00F4818304A
:1014F0000580451511481830058020253583402585
:101500003583CD021580051505804D0315803C837C
:10151000102232833983A9F81830A0F80080BDE882
:10152000FC9F000000100240002002400004024026
:1015300000000240001C0240000802400018024067
:101540002DE9F05FDFF83081DFF830C14FF008049B
:1015500098F80300ACF10209C10702D0ACF80040D2
:1015600001E0A9F8004081074FF0040302D5ACF870
:10157000003001E0A9F80030414942074FF400650E
:1015800001D54D8300E00D8306074FF4807202D52C
:101590003C4E328002E03B4EB61E3280C6064FF013
:1015A000020202D5384E328002E0374EB61E32803B
:1015B000364E5FEA806A4FF40072A6F1020701D549
:1015C000328000E03A80324A5FEA406B4FF0200AF6
:1015D00002D5A2F81AA001E0A2F818A05FEA006AFA
:1015E0004FF0400001D5508300E0108398F80400CC
:1015F0004FF4004A5FEA007B02D5ACF800A001E09E
:10160000A9F800A05FEAC0694FF0010C02D5A1F86B
:101610001AC001E0A1F818C05FEA80694FF0100C11
:1016200002D5A2F81AC001E0A2F818C0420601D5FE
:101630004B8300E00B83DFF85C90000611D5DFF8E8
:1016400058A00121504600F046FB012211465046A9
:1016500000F026FC0121504600F040FBA9F81A409A
:1016600001E0A9F8184098F80500C00702D03580BD
:10167000BDE8F09F3D80FBE7540100201A1C0240AA
:10168000002002401A0802401A0402401A180240C0
:101690000010024000000240000C004030B587B04E
:1016A00001210846FFF726FE01210803FFF74CFE43
:1016B000E020009002208DF805008DF804008DF8E0
:1016C000070000248DF806401B4D69462846FFF7A9
:1016D0004CFC052211462846FFF785FC0522062111
:1016E0002846FFF780FC052207212846FFF77BFCF0
:1016F000ADF808404FF48270ADF80A00ADF80C4028
:10170000ADF80E400120ADF810004002ADF8120017
:101710003820ADF81400ADF816400720ADF81800D9
:10172000064C02A9204600F022F80121204600F0D4
:1017300007F807B030BD0000000002400030014053
:10174000002904D0018841F04001018070470188E0
:1017500021F04001018070470246002012890A42B0
:1017600000D001207047808970478181704730B573
:10177000028802F441530A884C88CD8822438C8821
:101780002C4322430C8922434C8922438C892243D7
:10179000CC8922431A430280828B22F40062828326
:1017A000098A018230BD000070B505460C4C02214B
:1017B0002046FFF7D1FF0028F9D029462046FFF741
:1017C000D4FF1920FFF7BEFB01212046FFF7C4FF1D
:1017D0000028F9D02046FFF7C6FFC0B270BD000058
:1017E000003001400D484FF400510079C20707D086
:1017F0000B4A11800C499FED0B0A81ED000A02E0B3
:10180000074A921E118081074FF4806002D5074974
:10181000088070470549891E0880704754010020E0
:101820001A1C0240000000003C0000201A18024070
:10183000704700001CB50021019100912E4A1068EC
:1018400040F4803010604FF4A043106800F4003082
:1018500000900198401C0190009810B9019898429E
:10186000F3D11068800302D50120009000E00091C0
:10187000009801283FD120484030016841F0805154
:1018800001601E49086840F4404008601A4808306A
:1018900003680360036843F400430360036843F490
:1018A000A0530360041F164B2360136843F080733A
:1018B000136013689B01FCD50A6842F480320A6009
:1018C0004A68D203FCD50A6842F400320A604A68CA
:1018D0009203FCD50B4A40F205711160016821F0BA
:1018E00003010160016841F0020101600168C1F378
:1018F00081010229FAD11CBD00380240007000406D
:10190000195A4007003C02402DE9F041002500240F
:101910004FF6FF770120FEF7EDFF064631460DA09A
:1019200000F070FC092C00DB35443846FFF714FB4F
:10193000641C0A2CEEDB2A460C484068111A0C483D
:1019400001600CA000F05EFC3846BDE8F041FFF7F6
:1019500003BB000020256C6420D0A3C1E3B2D9D71B
:10196000F7B3C9B9A6A3A10A0000000050000020E7
:1019700030040020256420256C64200A000000004B
:101980002DE9F05F2DED028B634C207880079FEDF1
:10199000638A634D634E0ED40121284600F09BF903
:1019A00000220121284600F07BFA0021284600F0A1
:1019B000A7FA86ED038A6079C0077DD0DFF868B1A9
:1019C0004FF4006A51465846FFF71DFB01282AD004
:1019D000207A40F010002072207881071FD5DFF8B0
:1019E0004C9140074FF4004822D551465846FFF726
:1019F0000AFB002813D1207A40F010002072A9F8C9
:101A00000080207900F0F7002071207840F001007C
:101A100000F0F9002070E07900F0FE00E071BDEC0C
:101A2000028BBDE8F09F207A00F0EF002072D3E730
:101A30000121284600F04FF901221146284600F006
:101A40002FFA0121284600F049F93949354F10375E
:101A500048883870000A78700888B870000AF870F2
:101A600097ED000AF2EE040A20EE200A87ED000A44
:101A7000D6ED030AB4EEE00AF1EE10FA2CDB514683
:101A80005846FFF7C0FA38BB6079C00724D0207AE7
:101A900040F010002072A9F80080207900F0F700D3
:101AA0002071207840F0010000F0F9002070E0790A
:101AB00000F0FE00E07100E028E00121284600F07F
:101AC0000AF900220121284600F0EAF900212846FF
:101AD00000F016FA86ED038AD7ED000A96ED030AA8
:101AE000F4EEC00AF1EE10FA99D20121284600F076
:101AF000F2F800220121284600F0D2F9BDEC028B59
:101B00002846BDE8F05F002100F0FAB9207A00F025
:101B1000EF00207283E70000540100200000000065
:101B2000000400402800002000000240181C024071
:101B30006C02002000F080BA0C480D490068B0FB30
:101B4000F1F0401EB0F1807F01D301200AE04FF098
:101B5000E0214861074AF0201070002088610720CA
:101B600008610020002800D0FEE770470000002038
:101B700040420F0023ED00E010B51248016841F427
:101B8000700101601048016841F0010101600E4AD6
:101B900000210832116002680C4B1A400260031DDC
:101BA0000B4A1A60026822F48022026006480C3058
:101BB0000160FFF73FFE03494FF000608039086085
:101BC00010BD000088ED00E000380240FFFFF6FE87
:101BD0001030002410B500F069F80121BDE8104074
:101BE000880700F078B800000648F7EE000A90ED8C
:101BF000000A30EE200A80ED000A0121024800F0C0
:101C00006AB8000034000020000400400648F7EEE7
:101C1000000A90ED000A30EE200A80ED000A012152
:101C2000024800F058B800004000002000080040C2
:101C300070B5184CF7EE000A94ED000A30EE200A59
:101C400084ED000A144D0121284600F044F8134A9F
:101C5000216891421CDD0121284600F03CF8002259
:101C60000121284600F01CF90021284600F048F91F
:101C70000021284600F032F80948017901F07F017F
:101C800001719FED080A84ED000A074908200883C6
:101C900070BD00003C000020000C00400000F0413E
:101CA00054010020000000000000024001480068CC
:101CB00000470000B4000020002904D0018841F052
:101CC000800101807047018821F080010180704708
:101CD000C94301827047C94301827047002904D07B
:101CE000018841F0010101807047018821F0010164
:101CF0000180704710B55D49884209D1012108462D
:101D0000FFF730FB0021BDE810400120FFF72ABBA0
:101D1000B0F1804F0CD05649884213D101210220E6
:101D2000FFF704FB0021BDE810400220FFF7FEBAD8
:101D300001210846FFF7FAFA0021BDE81040012012
:101D4000FFF7F4BA4B49884209D101210420FFF77B
:101D5000EDFA0021BDE810400420FFF7E7BA46493C
:101D6000884209D101210820FFF7E0FA0021BDE8EF
:101D700010400820FFF7DABA4049884209D1012112
:101D80001020FFF7D3FA0021BDE810401020FFF724
:101D9000CDBA3B49884209D101212020FFF7C6FA7C
:101DA0000021BDE810402020FFF7C0BA3549884225
:101DB00009D101210220FFF7D5FA0021BDE810402A
:101DC0000220FFF7CFBA304988420AD101210C0422
:101DD0002046FFF7C7FA2046BDE810400021FFF774
:101DE000C1BA2A4988420AD101214C042046FFF792
:101DF000B9FA2046BDE810400021FFF7B3BA2449E4
:101E000088420AD101218C042046FFF7ABFA204614
:101E1000BDE810400021FFF7A5BA1E49884209D14C
:101E200001214020FFF782FA0021BDE81040402048
:101E3000FFF77CBA1849884209D101218020FFF7B9
:101E400075FA0021BDE810408020FFF76FBA1349F2
:101E500088420AD1841501212046FFF767FA2046FF
:101E6000BDE810400021FFF761BA10BD000001403D
:101E70000004004000080040000C0040001000403A
:101E800000140040000401400040014000440140B3
:101E90000048014000180040001C004000200040A5
:101EA000002A03D082890A438281704782898A434B
:101EB000828170473EB501210220FFF729FA40F2E6
:101EC000CF70019042F22730ADF800000020ADF84D
:101ED0000800ADF80200094C6946204600F012F8EF
:101EE00001212046FFF7F4FE012211462046FFF7AC
:101EF000D7FF01212046FFF7F1FE3EBD0004004060
:101F00004162704730B50288164C174DA0420DD083
:101F1000A8420BD0B0F1804F08D0144B984205D0A6
:101F2000134B984202D0134B984203D122F0700316
:101F30004A881A43104B984206D0104B984203D05F
:101F400022F440730A891A4302804A68C2620A88EE
:101F50000285A04201D0A84201D1897A01860121DF
:101F6000818230BD000001400004014000040040B7
:101F700000080040000C0040001000400014004029
:101F800010B500F004F8BDE81040FFF793BF08B5A6
:101F90004FF4E060FFF71EF91D208DF800000120CE
:101FA0008DF8010003218DF802108DF803006846BA
:101FB000FFF7DCF808BD00001FB501210820FFF77E
:101FC000A7F91C4C2046FFF795FE40F2CF71019116
:101FD00042F22731ADF800100021ADF80810ADF83D
:101FE000021069462046FFF78DFF01212046FFF7CA
:101FF00063FE4FF4E060FFF7EDF832218DF80C102E
:1020000003218DF80D1002218DF80E1001208DF89E
:102010000F0003A8FFF7AAF801212046FFF75BFE97
:10202000002201212046FFF73BFF00212046FFF759
:1020300055FE1FBD000C004003480168002902D076
:102040000168491E016070474400002070B50D4DC5
:1020500040F225542146284600F031F8012805D1E8
:1020600001F0C0FA2146284600F00EF840F2277130
:10207000284600F024F8012803D1BDE8704001F0A3
:10208000B7BA70BD0044004040F66A120A0A012146
:102090009140C94301807047002904D0818941F4EF
:1020A000005181817047818921F4005181817047FD
:1020B0000246002012880A4200D00120704770B505
:1020C000002440F66A12C1F3421301F01F050126F5
:1020D00006FA05F2012B0CD0022B0DD0838A134097
:1020E000090A8E40008830400BB100B1012420461F
:1020F00070BD83891340F3E7038A1340F0E710B5FE
:1021000040F66A13C1F3421301F01F040121A140FC
:10211000012B07D0022B07D014303AB102680A43D2
:10212000026010BD0C30F8E71030F6E702688A4311
:10213000026010BD7FB504460D46208A20F4405150
:10214000E88808432082A08941F20C618843A9886D
:102150002A8911436A8902431143A181A08A20F48C
:102160004071A8890843A0826846FFF709F91E4814
:10217000844202D01D48844201D1039800E00298B5
:10218000A189090408D500EBC00101EB0010296802
:102190004900B0FBF1F007E000EBC00101EB0010DB
:1021A00029688900B0FBF1F06422B0FBF2F109016B
:1021B0000B096FF018056B4300EB8300A3891D0426
:1021C0004FF0320307D503EBC000B0FBF2F000F094
:1021D0000700084306E003EB0010B0FBF2F000F04C
:1021E0000F00084320817FBD001001400014014012
:1021F0008088C0F308007047C1F3080181807047F0
:10220000FEE700000FB4054B10B503A9044A02987D
:1022100000F0CAF810BC5DF814FB0000F5320008AD
:102220005001002002E008C8121F08C1002AFAD19C
:1022300070477047002001E001C1121F002AFBD146
:10224000704700002DE9FF5FDDE90220010DDDF898
:1022500038B0024318D044F61050A1F2FF31414388
:102260000D140F98012820D0A5EB0B00401C5FEA4D
:10227000000A4FF00004474EDFF81C91A04650467C
:1022800016D5CAF1000728E00F98012443A20128BF
:1022900008D0002100980F9BC0E90021C0E902434B
:1022A000BDE8FF9F6FEA0B01F4E7CBF10000DEE72A
:1022B000074612E0F80707D0224633464046494613
:1022C000FEF749F8804689462246334610461946AD
:1022D000FEF741F804460E467F10002FEAD1DDE9F3
:1022E0000201BAF1000F42464B4602DAFEF733F81C
:1022F00001E0FEF7A2F804460E460022284BFEF746
:10230000A3FA03D84FF0FF30014607E00022254B27
:1023100020463146FDF778FFFEF77DFA102409E0EC
:10232000002C0ADB0A220023FEF77FF9019B3032E2
:102330001A55641E50EA0102F2D1641C019AC4F1DC
:10234000110314440F9A012A03D0012208430DD12E
:102350000AE0084304D000204FF0110B0F9080E7F3
:10236000A3EB0B056D1E0DE05B4504DD4FF0000295
:1023700005F1010504E003DA4FF00002A5F10105C3
:10238000002AECD000980F99C0E90231C0E900455D
:1023900086E70000000024400000F03F300000000D
:1023A0000000F0430000E03F2DE9FF4F95B09B4651
:1023B0008946064600250FE2252877D100242746C6
:1023C000F84A0121059400E0044316F8013F203B40
:1023D00001FA03F01042F7D130782A2811D06FF0BB
:1023E0002F033078A0F13002092A16D8059A44F05C
:1023F000020402EB820203EB42021044761C0590B9
:10240000EFE759F8042B0592002A03DA504244F40E
:102410000054059044F00204761C30782E2816D122
:1024200016F8010F44F004042A280DD06FF02F0293
:102430003078A0F13003092B09D807EB870302EBB2
:102440004303C718761CF3E759F8047B761C3078F1
:102450006C280FD006DC4C2817D068280DD06A28CD
:1024600014D104E0742810D07A280FD10DE044F480
:1024700000140AE044F4801401E044F4401472783B
:10248000824202D104F58014761C761C30786628CE
:102490000BD013DC582877D009DC002875D04528EC
:1024A000F6D04628F4D047281AD19DE118E06328D9
:1024B00035D0642879D0652812D195E1702873D081
:1024C00008DC6728F1D069286FD06E280DD06F28FE
:1024D00006D1B5E073282CD0752875D0782874D033
:1024E0005A46179990476D1C75E1C4F302500228B3
:1024F00009D003280DD0D9F8001004280DD00D60A4
:1025000009F1040967E1D9F80010EA17C1E900529E
:10251000F6E7D9F800100D80F2E70D70F0E719F832
:10252000041B8DF8001000208DF80100EA46012000
:1025300003E059F804AB4FF0FF3061074FF00001A2
:1025400002D40DE008F101018846B9420FDA804556
:10255000F8DB1AF808100029F4D108E008F10101AD
:1025600088468142FADB1AF808100029F6D105984E
:102570005B46A0EB080721463846179A00F094FA0C
:10258000284400EB080507E04DE029E10DE01AF8CA
:10259000010B5A4617999047B8F10108F7D25B46EC
:1025A00021463846179A13E142E00A220092C4F30A
:1025B00002524FF0000A022A08D059F804CB032A2D
:1025C0004FEAEC710AD00DE029E02AE009F1070199
:1025D00021F00702F2E802C1914609E00FFA8CFCF3
:1025E0004FEAEC71042A03D14FFA8CFC4FEAEC71EC
:1025F000002907DA0A460021DCF1000C61EB020138
:102600002D2202E0220504D52B228DF80420012280
:1026100003E0E20701D02022F7E7904659E00A21C3
:1026200002E010220DE010214FF0000A00910BE0B3
:1026300010224FF0000A44F004040827009203E03F
:1026400008224FF0000A0092C4F30252022A05D079
:1026500059F804CB0021032A08D009E009F1070149
:1026600021F00702F2E802C1914605E01FFA8CFC56
:10267000042A01D10CF0FF0C4FF00008220728D5E6
:10268000702806D0009B83F0100353EA0A0305D09C
:102690000EE040228DF80420012208E05CEA0102ED
:1026A00006D030228DF804208DF8050002229046D5
:1026B000009B83F0080353EA0A030AD15CEA010293
:1026C00001D1620705D530228DF804204FF00108B2
:1026D0007F1E582804D034A003900EA802900DE06D
:1026E00036A0F9E753466046009AFDF79EFF844600
:1026F0000398825C0298401E029002705CEA01001E
:10270000F0D1029806A9081A00F1200A600702D544
:1027100024F4803400E00127574502DDA7EB0A00CE
:1027200000E0002000EB0A01009005984144401AA7
:102730000590E00306D45B462146179A059800F001
:10274000B3F90544002706E001A85A46C05D179971
:1027500090476D1C7F1C4745F6DBE0030CD55B46BC
:102760002146179A059800F09FF9054404E03020AF
:102770005A46179990476D1C0099481E00900029F1
:10278000F5DC08E0029802995A460078491C02914B
:10279000179990476D1CBAF10001AAF1010AF1DC0A
:1027A00065E1000009280100303132333435363715
:1027B000383961626364656600000000303132338D
:1027C000343536373839414243444546000000002D
:1027D00000F058F90544761C307800287FF4ECAD01
:1027E00019B02846BDE8F08F620700D4062709F12A
:1027F000070222F0070CFCE80223E14603F0004840
:102800005FEA080C02D00FF2702C0DE05FEA045C66
:1028100002D50FF2682C07E05FEAC47C02D00FF209
:10282000602C01E0AFF2700C4FF0FF3823F0004352
:10283000CDF850C065280CD006DC452809D04628C4
:102840001DD047283DD13DE0662818D067287ED1AD
:1028500038E00021112F01DB112000E0781CCDE9C8
:10286000000106A90EA8FFF7EDFCDDE90F010E9AA5
:1028700003910021009207F1010A04914DE04FF00D
:1028800000400097CDE9011006A90EA8FFF7DAFC79
:10289000DDE90F0203920E9B11990022DDF80CA0D6
:1028A0000093049211B9791C00EB010AB7EB0A00FE
:1028B00004D4C0F1FF3007F1010A0490AAEB07002D
:1028C000019044E0012F00DA01270021112F01DDE2
:1028D000112000E03846CDE9000106A90EA8FFF757
:1028E000B1FCDDE90F010E9A0391002104910092E1
:1028F000BA4621070CD40399514500DA8A46BAF149
:10290000010F05DD009AAAF10101515C302908D0C0
:10291000B84202DA10F1040F06DA0121CDE9011004
:1029200015E0AAF10101E9E7002805DC049901445A
:102930000491AAEB000102E0411C514500DD8A46EA
:102940000499401A401C01904FF00040029020076B
:1029500004D40198504501DBCDF8048000208DF8A7
:102960004F0002980DF14F07B0F1004F25D02B20FA
:102970000E9002984FF0020800280CDA40420290B4
:102980002D200E9007E00A210298FDF738FE303125
:10299000029007F8011DB8F10001A8F10108F2DC6E
:1029A00002980028EFD1791E0E980870307800F058
:1029B000200040F0450007F8020D12A8C01B00F1EE
:1029C00007081498007800B1012000EB0A01019873
:1029D00001EBE07105984144401A401E0590E00368
:1029E00006D45B462146179A059800F05DF8054429
:1029F0001498007818B15A46179990476D1CE00357
:102A000024D55B462146179A059800F04DF80544F9
:102A10001CE00498002807DBDDE90301884203DDA0
:102A20000098405C179901E0179930205A4690476A
:102A3000049805F10105401C04900198401E019086
:102A400004D12E205A46179990476D1CBAF1000107
:102A5000AAF1010ADDDC05E017F8010B5A461799C7
:102A600090476D1CB8F10001A8F10108F4DC5B4649
:102A70002146179A0598ABE62D0000002B000000B8
:102A8000200000002DE9F041044600251E461746AF
:102A9000880404D405E039462020B0476D1C641E2C
:102AA000F9D52846BDE8F0812DE9F041044600251E
:102AB0001E469046C80301D5302700E02027880431
:102AC00004D505E041463846B0476D1C641EF9D573
:102AD0002846BDE8F081000070B50024054D287837
:102AE000012802D00624204670BD286980470020B6
:102AF0002870F8E7940000202DE9F0410C460026EC
:102B00002188052903D003263046BDE8F0814178AD
:102B10000A0281781143491C8FB2C17809020279F7
:102B20000A43511E40F2CF73994221D200212180E5
:102B3000012100F8011B23885B1C2380530703D06D
:102B400001EBD201CDB201E0C2F3C70500F8015B91
:102B50002188491C21800023394600F0DDFA18B194
:102B600000F032FD0646CFE7208828442080CBE7DE
:102B70000326C9E770B50C4600262188052902D036
:102B80000326304670BD4178090282780A43521C00
:102B900093B2C178090202790A43511E40F2CF75FF
:102BA000A94221D200212180022100F8011B2188A5
:102BB000491C2180510704D0012101EBD201CDB283
:102BC00001E0C2F3C70500F8015B2188491C2180A0
:102BD000194600F0FBFA18B100F0F6FC0646D0E703
:102BE000208828442080CCE70326CAE770B50C462D
:102BF00000262188052902D00326304670BD417881
:102C00000A0281781143491C89B205796A1E7C2A1F
:102C10001AD800222280032202702288521C2280AD
:102C20006A004270801C2288521C228000232A469F
:102C300000F00AFB18B100F0C7FC0646DDE720886B
:102C400000EB45002080D8E70326D6E770B50C4698
:102C500000262188052902D00326304670BD417820
:102C60000A0281781143491C89B2C278120205799F
:102C700015436A1E7C2A19D2002222800422027087
:102C80002288521C22806A004270801C2288521CBA
:102C900022802A4600F00CFB18B100F095FC064695
:102CA000DBE7208800EB45002080D6E70326D4E749
:102CB0002DE9F04104460D46002728880A2842D312
:102CC00060780102A0780843401C1FFA80F8E07881
:102CD00000022679064360790102A0790843401C6E
:102CE00081B2E0790002227A0243607A731E7C2B63
:102CF00028D83AB3792A25D8B0EB420F22D1012344
:102D000004F10A0000F0A0FAB8B920460021298099
:102D1000172101702988491C298071004170801C8D
:102D20002988491C298000233246414600F08CFA4C
:102D300018B9298801EB4601298020B100F044FC34
:102D4000074600E003273846BDE8F08170B50C4621
:102D5000054D0649401C2A88FDF744FA2888401C86
:102D60002080002070BD000090000020C0050020E1
:102D700038B500240988052902D00324204638BD2F
:102D80004178090282780A43521C91B202791AB939
:102D9000C278FF2A02D00AB10324EFE700228DF89F
:102DA0000120C078FF280CD08DF8002001231A469E
:102DB000684600F0B1F90028E0D000F005FC0446B8
:102DC000DCE701208DF80000F0E710B50024098849
:102DD000052902D00324204610BD41780A028178DB
:102DE0001143491C89B201231A46C01C00F02CFA79
:102DF0000028F0D000F0E8FB0446ECE72DE9F041B4
:102E00000D4600242988052927D9417809028278AE
:102E10000A43521C91B2C278130202791A434679CE
:102E2000530704D0012303EBD203DBB201E0C2F36A
:102E3000C703571EB7F5F66F0DD2B3420BD101236E
:102E4000801D00F069F918B100F0BEFB044605E0F2
:102E50000520288002E0032400E003242046BDE88A
:102E6000F08170B50D460024298806291FD34178CA
:102E7000090282780A43521C91B2C2781302027985
:102E80001A434379561E772E0FD85606360E9E42A9
:102E90000BD10123801D00F0D7F918B100F094FB8D
:102EA000044605E00520288002E0032400E0032416
:102EB000204670BD70B514461A46049B064600298C
:102EC00001D0F72901D9022421E0134D08462971C8
:102ED00016B10224ACB11AE01049296110496961A8
:102EE0001049E9601049A9610021E9610F4969624F
:102EF0000F49A9620F492962214600F073F8044680
:102F0000E8E700F0B5FD20B16E7101202870204681
:102F100070BD0324FBE7000094000020D9300008B6
:102F2000FD30000871300008253000081D3C000805
:102F3000C13C00088D3C0008F8B5294D28780028D0
:102F400001D00620F8BD684600F084FD012844D178
:102F50009DF80000E8B3012802D002283DD10FE01F
:102F60001F4AAB69921D911CC81F984788BB68789F
:102F70002979884200D060BB022000F081FD2CE05E
:102F8000A8680478AC700126EE700021144B2C3335
:102F900013F8312062B1A24207D103EBC1014A68A4
:102FA0000F49891D9047E87002E0491C1029EFDBAA
:102FB000687870B1E97849B1A878EE80AA6840F0E5
:102FC00080001070E888431CEB801154EA8828794F
:102FD00000E002E0D5E9021398470020F8BD0000A8
:102FE0009400002070B508461546002408222946A2
:102FF00000F058FD012801D003240EE0B5F5964FEE
:1030000001D9232003E006496800B1FBF0F080B24B
:1030100000F0C4FD012800D00324204670BD00004C
:10302000A07F17002DE9F04106460F469046002488
:10303000FDF797FF0C4DA888042804D3A9880B48F6
:1030400000F0AAFC28B10524FDF78DFF2046BDE85D
:10305000F081064800783070A888C01EA8F80000EB
:103060000248401C3860EFE740010020E0050020E6
:103070002DE9F04780460D4691460026FDF771FF89
:10308000134C6078012805D00526FDF76CFF30460B
:10309000BDE8F0876D1E2846A5600127678080F88F
:1030A0000080618849446180618800F075FC618816
:1030B0004A1C6280074A5054030A6088411C6180A0
:1030C000135427700121002000F07CFCDDE7000094
:1030D00040010020E005002010B5FDF742FF064941
:1030E000002048700021012000F06CFC00F09DFCE5
:1030F000BDE81040FDF737BF4001002010B5FDF7D7
:1031000030FF0021084600F05DFC00F07DFCBDE8CA
:103110001040FDF728BF00002DE9F04704464FF0AE
:103120000008012000EBD206002945D08818692844
:1031300042D8481EC51700EB5570C510214840887D
:10314000081AC11700EB517121F00701471ADFF887
:1031500078A002F0070963B1012B2FD11EE02846A9
:10316000B9B26D1C5044082200F0D4FD04F8010BE4
:10317000761E002EF3DC641EC9F108002178814020
:10318000C9B2C140217019E0284614F8013BB9B218
:103190006D1C5044082200F0CEFD761E012EF3DC9B
:1031A000B9F1000F0AD0237809F0FF02B9B205EB9C
:1031B0000A0000F0C0FD01E04FF001084046BDE804
:1031C000F087000028000020540100202DE9F0477E
:1031D000044690464FF0000A012000EBD806194F34
:1031E000A7F10A00007807223A70012925D301EBE4
:1031F0000802112A21D8081AC11700EB5171CD100D
:1032000021F00701A0EB01090AE028461FFA89F125
:103210006D1C3844082200F07DFD04F8010B761E79
:10322000002EF2DC641E08F007002178C0F10800CF
:103230008140C9B2C140217001E04FF0010A5046FF
:10324000BDE8F08732000020F0B50025164C174E7F
:10325000B679012924D38F18652F21D8891B6BB12A
:10326000012B1ED119E034F811301B0A037014F839
:1032700011304370801C491C521E92B2002AF2D1B8
:103280000FE003781B0224F811304678801C1E439F
:1032900024F81160491C521E92B2002AF1D100E0BC
:1032A00001252846F0BD00002A0200202800002049
:1032B00070B500240D4B0E4D2D79012912D38E18B7
:1032C000652E0FD8491B0AE033F811502D0A0570FE
:1032D00013F811504570801C491C521E92B2002AEE
:1032E000F2D100E00124204670BD00006201002000
:1032F0002800002070B50446064DE1B22846FEF7CE
:103300007BFF80212846FEF7D3FE0028F9D0204617
:1033100070BD0000001001402DED028B82B0504EB8
:103320000025758035809FED4F8A4F4880ED008ADB
:10333000FEF702FCFDF7B8FDFEF774F8FEF73CFE61
:10334000FEF71EFEFDF7EAFEFDF7A4FE00F056F9BB
:1033500001224FF41643114600200095FFF7AAFD05
:10336000FFF7BAFBFDF75CFE404C2046FDF7EAFD97
:1033700000F070F92046FDF7E5FDFDF717FB20464C
:10338000FDF7E0FDFEF7C0FA394CB58025703948ED
:1033900005804FF48065384E384F00F081F929469A
:1033A0003046FDF730FE012845D0A07A00F0EF004E
:1033B000A07208213846FDF726FE012840D0A07AE9
:1033C00000F0DF00A072FEF7DBFAFEF70BFAFEF763
:1033D000D7FA00F059F8FEF7D3FAFDF707FFFEF72A
:1033E000CFFAFFF7A9FD00231A4619460120FDF781
:1033F0003FFBFEF7C5FA2078800715D4607840F0CF
:1034000002006070DFF8788001214046FEF763FC1F
:10341000002201214046FEF743FD00214046FEF711
:103420006FFD184880ED008A227990070DD542F093
:10343000800020710CE0A07A40F01000A072B8E784
:10344000A07A40F02000A072BDE702F07F0020715A
:10345000FDF7F4FAFEF794FAFEF772F89DE7000024
:1034600048000020000000003C000020400D030048
:103470005401002024000020001C024000080240EB
:1034800000040040340000202DE9F047444CDFF8F0
:1034900014814FF4007622784FF4005790073BD404
:1034A000DFF80491414D100711D501214846FDF781
:1034B0001BFE012830D1288870BB39464046FDF7F5
:1034C00013FE48B3E07940F00100E07124E031469A
:1034D0003748FDF709FE01280DD1288858B9207812
:1034E000000708D439464046FDF7FEFD18B1E079E3
:1034F00040F00100E07101214846FDF7F5FD01288B
:103500000AD1288840B939464046FDF7EDFD18B18B
:10351000E07940F00100E07139464046FDF7E4FDF6
:1035200000283AD12078800737D5224D0420288002
:103530002020E0701E4802271A3007801E480680AF
:103540004CF25030FDF7FEFCB8032880207900F0E3
:10355000F7002071207840F0010000F0F9002070A1
:10356000E07900F0FE00E071144C01212046FEF7E6
:10357000B2FB002201212046FEF792FC00212046EA
:10358000FEF7BEFC0F489FED0E0A80ED000A0848CA
:10359000183007800848801E0680BDE8F0870000CC
:1035A00054010020000802400000024024000020D6
:1035B00000040240181C02401A1802400004004097
:1035C0000000000034000020002805D0012805D0AC
:1035D000072805D00420704700207047022070475C
:1035E000062070470148006800470000B80000202E
:1035F0000148006800470000BC0000202DE9FC41A4
:1036000001218020FDF776FE4FF4804000900026D7
:103610008DF8046001248DF8074002258DF80550CF
:103620000B4F69463846FDF7A0FC01218020FDF7CD
:1036300061FE210300918DF804608DF807408DF83C
:10364000055069463846FDF790FCBDE8FC81000056
:10365000001C024070B50F4C2068C004FCD40E481A
:103660004FF480610180C11401800B498014891CD2
:1036700008800A4D10212846FDF7CCFCFE20FEF7FD
:1036800093F82168C904FCD42846BDE87040102195
:10369000FDF7C2BC10040240181C024000000240AA
:1036A0002DE9F04100251A4FB87800062DD50024E9
:1036B0004FF6FF780120FDF71DF90646314615A0AB
:1036C000FEF7A0FD092C00DB35444046FDF744FC25
:1036D000641C0A2CEEDB2A4614488069111A14482F
:1036E000016014A0FEF78EFD4046FDF735FC16483C
:1036F0004FF480610180C114018013498014891C3A
:103700000880B87800F07F00B870BDE8F081000054
:103710005401002020256C6420D0A3C1E3B2D9D786
:10372000F7B3C9B9A6A3A10A000000005000002009
:1037300030040020646576696174696F6E202564C9
:1037400020256C64200A0000181C024070B52DED85
:10375000108B86B002EB4202754E764B96F9005004
:1037600003EB42140C2D0BDA2A4604E004EBC203EF
:1037700003C3521C52B20C2AF8DB6D1C357011E0E9
:103780000022531C1D4604EBC30304EBC202D3E921
:103790000063C2E900636AB20B2AF2DB0B4604EB5A
:1037A000C20109C1D4E90001FCF7C7FE9FED621B0D
:1037B00053EC112BFCF7CFFD41EC180BD4E90201BF
:1037C000FCF7BBFE9FED5E1B53EC112BFCF7C3FD1A
:1037D00041EC190BD4E90401FCF7AFFE9FED5A1B35
:1037E00053EC112BFCF7B7FD41EC1A0BD4E90601A1
:1037F000FCF7A3FE9FED561B53EC112BFCF7ABFD22
:1038000041EC1B0BD4E90801FCF797FE9FED521B1E
:1038100053EC112BFCF79FFD41EC1C0BD4E90A0182
:10382000FCF78BFE9FED4E1B53EC112BFCF793FD29
:1038300041EC1D0BD4E90C01FCF77FFE9FED4A1B08
:1038400053EC112BFCF787FD41EC1E0BD4E90E0164
:10385000FCF773FE9FED461B53EC112BFCF77BFD31
:1038600041EC1F0BD4E91001FCF767FE9FED421BF2
:1038700053EC112BFCF76FFDCDE90401D4E91201E3
:10388000FCF75BFE9FED3E1B53EC112BFCF763FD39
:10389000CDE90201D4E91401FCF74FFE9FED3A1B7C
:1038A00053EC112BFCF757FDCDE90001D4E91601CB
:1038B000FCF743FE9FED361B53EC112BFCF74BFD41
:1038C0009DED001B53EC112BFCF79EFC9DED021BA4
:1038D00053EC112BFCF798FC9DED041B53EC112BC2
:1038E000FCF792FC53EC1F2BFCF78EFC53EC1E2BC9
:1038F000FCF78AFC53EC1D2BFCF786FC53EC1C2BCD
:10390000FCF782FC53EC1B2BFCF77EFC53EC1A2BD0
:10391000FCF77AFC53EC192BFCF776FC53EC182BD4
:10392000FCF772FC41EC100B06B0BDEC108B70BDC7
:1039300050000020400400202D431CEBE2368A3F5B
:10394000613255302AA9933F6C787AA52C439C3F6D
:103950006EA301BC0512A43F107A36AB3E57AB3FB5
:10396000A835CD3B4ED1B13F1FF46C567DAEB63F6E
:10397000B84082E2C798BB3F65AA60545227C03F57
:10398000931804560E2DC23F613255302AA9C33F09
:103990007B14AE47E17AC43F70B5FF23FF22084D88
:1039A00005F5807605E010F8014B54402A5D5A4039
:1039B000335D491E89B2F6D242EA032070BD000091
:1039C000603D000870B50C460E4D40F225510128AF
:1039D0000DD000222846FEF792FB40F22771012C01
:1039E0000AD02846BDE870400022FEF788BB0122BD
:1039F0002846FEF784FBF0E72846BDE87040012228
:103A0000FEF77DBB0044004010B501218C07204625
:103A1000FEF761F9002201212046FEF741FA204617
:103A2000BDE810400021FEF76BBA10B501218C07EC
:103A30002046FEF750F9012211462046FEF730FAE3
:103A400000212046FEF75CFA2046BDE81040012127
:103A5000FEF744B90246002004494B78002B04D0FD
:103A60000878107000204870012070474C01002039
:103A70000249002048700120704700004C010020DE
:103A8000024901224A700870012070474C01002051
:103A900010B504460248FEF7ABFB2070012010BDB4
:103AA000004400402DE9F04188B080460121082003
:103AB000FDF720FC01214804FDF72AFC304F0722C6
:103AC00006213846FDF78FFA072205213846FDF713
:103AD0008AFA00248DF81E4001268DF81F60022509
:103AE0008DF81C50202006908DF81D5006A93846F0
:103AF000FDF73BFA8DF81C504020069006A9384689
:103B0000FDF733FA4FF416400290ADF80C40ADF8D3
:103B10000E40ADF81040ADF814400C20ADF8120086
:103B2000184D02A92846FEF705FBB8F1010F03D096
:103B3000002008B0BDE8F081FDF713FA02A928467D
:103B4000FEF7F8FA012240F225512846FEF7D7FA8F
:103B500001212846FEF7A0FA4FF4E060FDF73AFB9A
:103B600026208DF804008DF805408DF806608DF84C
:103B7000076001A8FDF7FAFAFDF7F5F90120D8E78B
:103B8000000C02400044004010B501460248FEF718
:103B900033FB012010BD0000004400407FB5044607
:103BA00001210846FDF7B4FB4FF080452846FEF79B
:103BB000A1F8641E019442F22730ADF80000002401
:103BC000ADF80840ADF8024069462846FEF79AF97C
:103BD00001212846FEF770F84FF4E060FDF7FAFA8D
:103BE0001C208DF80C008DF80D4001208DF80E0082
:103BF0008DF80F0003A8FDF7B9FA01212846FEF75A
:103C00006AF8002201212846FEF74AF900212846D9
:103C1000FEF764F804B0012070BD000038B5002440
:103C20006846FFF735FF174A517839B11648012920
:103C30000AD0022915D0032921D102E0FFF7F5FEB1
:103C40001DE0FFF7F2FE1AE0002191809DF8005080
:103C500091884B1C9380455402205070FFF7E5FE7D
:103C60000DE09188FF2906D89DF8005091884B1CE3
:103C70009380455401E003205070FFF7D6FE2046A4
:103C800038BD000040010020E005002070B5002490
:103C90000A4D6878002802D0022809D104E00020EB
:103CA000FFF7EEFE044603E00120FFF7E9FE0446BD
:103CB000FFF7AAFE01206870204670BD4001002079
:103CC00070B50025124C2078002802D001281CD1A4
:103CD00004E000210120FFF775FE16E0608850B176
:103CE000A0680078FFF750FFA068401CA0606088C3
:103CF000401E608009E00320FFF7C2FE0546002158
:103D00000120FFF75FFE00202070284670BD0000F4
:103D10004001002010B5CB085C4201EBC401012436
:103D20009440641EC25C1844407842EA0020C840B7
:103D30002040C0B210BD70B5CC08654201EBC50192
:103D40008B40012595406D1E8D40015D021956780E
:103D500041EA0621A94319430155080A507070BD74
:103D600000C1814001C0804101C0804100C181404B
:103D700001C0804100C1814000C1814001C080413B
:103D800001C0804100C1814000C1814001C080412B
:103D900000C1814001C0804101C0804100C181401B
:103DA00001C0804100C1814000C1814001C080410B
:103DB00000C1814001C0804101C0804100C18140FB
:103DC00000C1814001C0804101C0804100C18140EB
:103DD00001C0804100C1814000C1814001C08041DB
:103DE00001C0804100C1814000C1814001C08041CB
:103DF00000C1814001C0804101C0804100C18140BB
:103E000000C1814001C0804101C0804100C18140AA
:103E100001C0804100C1814000C1814001C080419A
:103E200000C1814001C0804101C0804100C181408A
:103E300001C0804100C1814000C1814001C080417A
:103E400001C0804100C1814000C1814001C080416A
:103E500000C1814001C0804101C0804100C181405A
:103E600000C0C101C30302C2C60607C705C5C4041A
:103E7000CC0C0DCD0FCFCE0E0ACACB0BC90908C88A
:103E8000D81819D91BDBDA1A1EDEDF1FDD1D1CDC7A
:103E900014D4D515D71716D6D21213D311D1D010EA
:103EA000F03031F133F3F23236F6F737F53534F4DA
:103EB0003CFCFD3DFF3F3EFEFA3A3BFB39F9F8384A
:103EC00028E8E929EB2B2AEAEE2E2FEF2DEDEC2C3A
:103ED000E42425E527E7E62622E2E323E12120E0AA
:103EE000A06061A163A3A26266A6A767A56564A49A
:103EF0006CACAD6DAF6F6EAEAA6A6BAB69A9A8680A
:103F000078B8B979BB7B7ABABE7E7FBF7DBDBC7CF9
:103F1000B47475B577B7B67672B2B373B17170B069
:103F20005090915193535292965657975595945459
:103F30009C5C5D9D5F9F9E5E5A9A9B5B99595898C9
:103F4000884849894B8B8A4A4E8E8F4F8D4D4C8CB9
:103F50004484854587474686824243834181804029
:103F6000803F000800000020540100009C08000869
:103F7000E43F0008540100208C09000034220008AE
:103F8000118495BA0A680901020304060708090C9E
:103F9000B9105902012423320F0009349B1CEE3D55
:103FA0008D12AAAF022B023211134D2D2B080408DB
:103FB000122C33080313ED2B33081013632E330830
:103FC000061ACB2032171AB12029C213F92A330856
:103FD000051A711819AB111AFD0829741A753801E0
:043FE0004400000099
:04000005080001AD41
:00000001FF
